{
    "_format": "hh-sol-artifact-1",
    "contractName": "Ballot",
    "sourceName": "contracts/TokenizedBallot.sol",
    "abi": [
        {
            "inputs": [
                {
                    "internalType": "bytes32[]",
                    "name": "proposalNames",
                    "type": "bytes32[]"
                },
                {
                    "internalType": "contract IMyToken",
                    "name": "_tokenContract",
                    "type": "address"
                },
                {
                    "internalType": "uint256",
                    "name": "_targetBlockNumber",
                    "type": "uint256"
                }
            ],
            "stateMutability": "nonpayable",
            "type": "constructor"
        },
        {
            "inputs": [
                {
                    "internalType": "uint256",
                    "name": "",
                    "type": "uint256"
                }
            ],
            "name": "proposals",
            "outputs": [
                {
                    "internalType": "bytes32",
                    "name": "name",
                    "type": "bytes32"
                },
                {
                    "internalType": "uint256",
                    "name": "voteCount",
                    "type": "uint256"
                }
            ],
            "stateMutability": "view",
            "type": "function"
        },
        {
            "inputs": [],
            "name": "targetBlockNumber",
            "outputs": [
                {
                    "internalType": "uint256",
                    "name": "",
                    "type": "uint256"
                }
            ],
            "stateMutability": "view",
            "type": "function"
        },
        {
            "inputs": [],
            "name": "tokenContract",
            "outputs": [
                {
                    "internalType": "contract IMyToken",
                    "name": "",
                    "type": "address"
                }
            ],
            "stateMutability": "view",
            "type": "function"
        },
        {
            "inputs": [
                {
                    "internalType": "uint256",
                    "name": "proposal",
                    "type": "uint256"
                },
                {
                    "internalType": "uint256",
                    "name": "amount",
                    "type": "uint256"
                }
            ],
            "name": "vote",
            "outputs": [],
            "stateMutability": "nonpayable",
            "type": "function"
        },
        {
            "inputs": [
                {
                    "internalType": "address",
                    "name": "",
                    "type": "address"
                }
            ],
            "name": "votePowerSpent",
            "outputs": [
                {
                    "internalType": "uint256",
                    "name": "",
                    "type": "uint256"
                }
            ],
            "stateMutability": "view",
            "type": "function"
        },
        {
            "inputs": [],
            "name": "winnerName",
            "outputs": [
                {
                    "internalType": "bytes32",
                    "name": "winnerName_",
                    "type": "bytes32"
                }
            ],
            "stateMutability": "view",
            "type": "function"
        },
        {
            "inputs": [],
            "name": "winningProposal",
            "outputs": [
                {
                    "internalType": "uint256",
                    "name": "winningProposal_",
                    "type": "uint256"
                }
            ],
            "stateMutability": "view",
            "type": "function"
        }
    ],
    "bytecode": "0x60806040523480156200001157600080fd5b506040516200098b3803806200098b833981810160405281019062000037919062000390565b81600160006101000a81548173ffffffffffffffffffffffffffffffffffffffff021916908373ffffffffffffffffffffffffffffffffffffffff1602179055508060028190555060005b83518110156200010e5760006040518060400160405280868481518110620000af57620000ae6200040b565b5b602002602001015181526020016000815250908060018154018082558091505060019003906000526020600020906002020160009091909190915060008201518160000155602082015181600101555050808060010191505062000082565b505050506200043a565b6000604051905090565b600080fd5b600080fd5b600080fd5b6000601f19601f8301169050919050565b7f4e487b7100000000000000000000000000000000000000000000000000000000600052604160045260246000fd5b6200017c8262000131565b810181811067ffffffffffffffff821117156200019e576200019d62000142565b5b80604052505050565b6000620001b362000118565b9050620001c1828262000171565b919050565b600067ffffffffffffffff821115620001e457620001e362000142565b5b602082029050602081019050919050565b600080fd5b6000819050919050565b6200020f81620001fa565b81146200021b57600080fd5b50565b6000815190506200022f8162000204565b92915050565b60006200024c6200024684620001c6565b620001a7565b90508083825260208201905060208402830185811115620002725762000271620001f5565b5b835b818110156200029f57806200028a88826200021e565b84526020840193505060208101905062000274565b5050509392505050565b600082601f830112620002c157620002c06200012c565b5b8151620002d384826020860162000235565b91505092915050565b600073ffffffffffffffffffffffffffffffffffffffff82169050919050565b60006200030982620002dc565b9050919050565b60006200031d82620002fc565b9050919050565b6200032f8162000310565b81146200033b57600080fd5b50565b6000815190506200034f8162000324565b92915050565b6000819050919050565b6200036a8162000355565b81146200037657600080fd5b50565b6000815190506200038a816200035f565b92915050565b600080600060608486031215620003ac57620003ab62000122565b5b600084015167ffffffffffffffff811115620003cd57620003cc62000127565b5b620003db86828701620002a9565b9350506020620003ee868287016200033e565b9250506040620004018682870162000379565b9150509250925092565b7f4e487b7100000000000000000000000000000000000000000000000000000000600052603260045260246000fd5b610541806200044a6000396000f3fe608060405234801561001057600080fd5b506004361061007d5760003560e01c8063609ff1bd1161005b578063609ff1bd146100ef5780639e90d0d91461010d578063b384abef1461013d578063e2ba53f0146101595761007d565b8063013cf08b146100825780632a8cd29e146100b357806355a373d6146100d1575b600080fd5b61009c600480360381019061009791906102e3565b610177565b6040516100aa929190610338565b60405180910390f35b6100bb6101ab565b6040516100c89190610361565b60405180910390f35b6100d96101b1565b6040516100e691906103fb565b60405180910390f35b6100f76101d7565b6040516101049190610361565b60405180910390f35b61012760048036038101906101229190610454565b610259565b6040516101349190610361565b60405180910390f35b61015760048036038101906101529190610481565b610271565b005b610161610275565b60405161016e91906104c1565b60405180910390f35b6000818154811061018757600080fd5b90600052602060002090600202016000915090508060000154908060010154905082565b60025481565b600160009054906101000a900473ffffffffffffffffffffffffffffffffffffffff1681565b6000806000905060005b600080549050811015610254578160008281548110610203576102026104dc565b5b9060005260206000209060020201600101541115610247576000818154811061022f5761022e6104dc565b5b90600052602060002090600202016001015491508092505b80806001019150506101e1565b505090565b60036020528060005260406000206000915090505481565b5050565b6000806102806101d7565b81548110610291576102906104dc565b5b906000526020600020906002020160000154905090565b600080fd5b6000819050919050565b6102c0816102ad565b81146102cb57600080fd5b50565b6000813590506102dd816102b7565b92915050565b6000602082840312156102f9576102f86102a8565b5b6000610307848285016102ce565b91505092915050565b6000819050919050565b61032381610310565b82525050565b610332816102ad565b82525050565b600060408201905061034d600083018561031a565b61035a6020830184610329565b9392505050565b60006020820190506103766000830184610329565b92915050565b600073ffffffffffffffffffffffffffffffffffffffff82169050919050565b6000819050919050565b60006103c16103bc6103b78461037c565b61039c565b61037c565b9050919050565b60006103d3826103a6565b9050919050565b60006103e5826103c8565b9050919050565b6103f5816103da565b82525050565b600060208201905061041060008301846103ec565b92915050565b60006104218261037c565b9050919050565b61043181610416565b811461043c57600080fd5b50565b60008135905061044e81610428565b92915050565b60006020828403121561046a576104696102a8565b5b60006104788482850161043f565b91505092915050565b60008060408385031215610498576104976102a8565b5b60006104a6858286016102ce565b92505060206104b7858286016102ce565b9150509250929050565b60006020820190506104d6600083018461031a565b92915050565b7f4e487b7100000000000000000000000000000000000000000000000000000000600052603260045260246000fdfea2646970667358221220e65d359406c272a516a78ffeddf7b93a892fe4c8e566c92f03449d4aed51d56464736f6c63430008180033",
    "linkReferences": {},
    "deployedLinkReferences": {}
}